{
  "contractName": "Sofi",
  "abi": [
    {
      "anonymous": false,
      "inputs": [
        {
          "indexed": false,
          "internalType": "uint256",
          "name": "id",
          "type": "uint256"
        },
        {
          "indexed": false,
          "internalType": "string",
          "name": "hash",
          "type": "string"
        },
        {
          "indexed": false,
          "internalType": "string",
          "name": "description",
          "type": "string"
        },
        {
          "indexed": false,
          "internalType": "uint256",
          "name": "tipAmount",
          "type": "uint256"
        },
        {
          "indexed": false,
          "internalType": "address payable",
          "name": "author",
          "type": "address"
        }
      ],
      "name": "ImageUploaded",
      "type": "event"
    },
    {
      "anonymous": false,
      "inputs": [
        {
          "indexed": false,
          "internalType": "uint256",
          "name": "id",
          "type": "uint256"
        },
        {
          "indexed": false,
          "internalType": "string",
          "name": "hash",
          "type": "string"
        },
        {
          "indexed": false,
          "internalType": "string",
          "name": "description",
          "type": "string"
        },
        {
          "indexed": false,
          "internalType": "uint256",
          "name": "tipAmount",
          "type": "uint256"
        },
        {
          "indexed": false,
          "internalType": "address payable",
          "name": "author",
          "type": "address"
        }
      ],
      "name": "TipOnPost",
      "type": "event"
    },
    {
      "inputs": [],
      "name": "imageId",
      "outputs": [
        {
          "internalType": "uint256",
          "name": "",
          "type": "uint256"
        }
      ],
      "stateMutability": "view",
      "type": "function",
      "constant": true
    },
    {
      "inputs": [
        {
          "internalType": "uint256",
          "name": "",
          "type": "uint256"
        }
      ],
      "name": "images",
      "outputs": [
        {
          "internalType": "uint256",
          "name": "id",
          "type": "uint256"
        },
        {
          "internalType": "string",
          "name": "hash",
          "type": "string"
        },
        {
          "internalType": "string",
          "name": "description",
          "type": "string"
        },
        {
          "internalType": "uint256",
          "name": "tipAmount",
          "type": "uint256"
        },
        {
          "internalType": "address payable",
          "name": "author",
          "type": "address"
        }
      ],
      "stateMutability": "view",
      "type": "function",
      "constant": true
    },
    {
      "inputs": [],
      "name": "name",
      "outputs": [
        {
          "internalType": "string",
          "name": "",
          "type": "string"
        }
      ],
      "stateMutability": "view",
      "type": "function",
      "constant": true
    },
    {
      "inputs": [
        {
          "internalType": "string",
          "name": "_imageHash",
          "type": "string"
        },
        {
          "internalType": "string",
          "name": "_desc",
          "type": "string"
        }
      ],
      "name": "uploadImage",
      "outputs": [],
      "stateMutability": "nonpayable",
      "type": "function"
    },
    {
      "inputs": [
        {
          "internalType": "uint256",
          "name": "_id",
          "type": "uint256"
        }
      ],
      "name": "tipPostOwner",
      "outputs": [],
      "stateMutability": "payable",
      "type": "function",
      "payable": true
    }
  ],
  "bytecode": "0x60806040526040518060400160405280600481526020017f536f66690000000000000000000000000000000000000000000000000000000081525060009080519060200190620000519291906200006b565b5060006001553480156200006457600080fd5b5062000180565b82805462000079906200014a565b90600052602060002090601f0160209004810192826200009d5760008555620000e9565b82601f10620000b857805160ff1916838001178555620000e9565b82800160010185558215620000e9579182015b82811115620000e8578251825591602001919060010190620000cb565b5b509050620000f89190620000fc565b5090565b5b8082111562000117576000816000905550600101620000fd565b5090565b7f4e487b7100000000000000000000000000000000000000000000000000000000600052602260045260246000fd5b600060028204905060018216806200016357607f821691505b602082108114156200017a57620001796200011b565b5b50919050565b610e5080620001906000396000f3fe60806040526004361061004a5760003560e01c806306fdde031461004f578063848564821461007a578063a91b8314146100bb578063d6313c06146100e4578063ef3f7dd514610100575b600080fd5b34801561005b57600080fd5b5061006461012b565b6040516100719190610933565b60405180910390f35b34801561008657600080fd5b506100a1600480360381019061009c919061099f565b6101b9565b6040516100b2959493929190610a1c565b60405180910390f35b3480156100c757600080fd5b506100e260048036038101906100dd9190610bb2565b61031f565b005b6100fe60048036038101906100f9919061099f565b6104c0565b005b34801561010c57600080fd5b506101156107f1565b6040516101229190610c2a565b60405180910390f35b6000805461013890610c74565b80601f016020809104026020016040519081016040528092919081815260200182805461016490610c74565b80156101b15780601f10610186576101008083540402835291602001916101b1565b820191906000526020600020905b81548152906001019060200180831161019457829003601f168201915b505050505081565b60026020528060005260406000206000915090508060000154908060010180546101e290610c74565b80601f016020809104026020016040519081016040528092919081815260200182805461020e90610c74565b801561025b5780601f106102305761010080835404028352916020019161025b565b820191906000526020600020905b81548152906001019060200180831161023e57829003601f168201915b50505050509080600201805461027090610c74565b80601f016020809104026020016040519081016040528092919081815260200182805461029c90610c74565b80156102e95780601f106102be576101008083540402835291602001916102e9565b820191906000526020600020905b8154815290600101906020018083116102cc57829003601f168201915b5050505050908060030154908060040160009054906101000a900473ffffffffffffffffffffffffffffffffffffffff16905085565b600073ffffffffffffffffffffffffffffffffffffffff163373ffffffffffffffffffffffffffffffffffffffff16141561035957600080fd5b600082511161036757600080fd5b600081511161037557600080fd5b6001600081548092919061038890610cd5565b91905055506040518060a001604052806001548152602001838152602001828152602001600081526020013373ffffffffffffffffffffffffffffffffffffffff168152506002600060015481526020019081526020016000206000820151816000015560208201518160010190805190602001906104089291906107f7565b5060408201518160020190805190602001906104259291906107f7565b506060820151816003015560808201518160040160006101000a81548173ffffffffffffffffffffffffffffffffffffffff021916908373ffffffffffffffffffffffffffffffffffffffff1602179055509050507f1a409fdd5763d6f632cc0ec92624ec448fae2c874dc340879889ed07b57f9bde60015483836000336040516104b4959493929190610d63565b60405180910390a15050565b600081141580156104d357506001548111155b6104dc57600080fd5b6000600260008381526020019081526020016000206040518060a00160405290816000820154815260200160018201805461051690610c74565b80601f016020809104026020016040519081016040528092919081815260200182805461054290610c74565b801561058f5780601f106105645761010080835404028352916020019161058f565b820191906000526020600020905b81548152906001019060200180831161057257829003601f168201915b505050505081526020016002820180546105a890610c74565b80601f01602080910402602001604051908101604052809291908181526020018280546105d490610c74565b80156106215780601f106105f657610100808354040283529160200191610621565b820191906000526020600020905b81548152906001019060200180831161060457829003601f168201915b50505050508152602001600382015481526020016004820160009054906101000a900473ffffffffffffffffffffffffffffffffffffffff1673ffffffffffffffffffffffffffffffffffffffff1673ffffffffffffffffffffffffffffffffffffffff168152505090506000816080015190508073ffffffffffffffffffffffffffffffffffffffff166108fc349081150290604051600060405180830381858888f193505050501580156106db573d6000803e3d6000fd5b503482606001516106ec9190610dc4565b826060018181525050816002600085815260200190815260200160002060008201518160000155602082015181600101908051906020019061072f9291906107f7565b50604082015181600201908051906020019061074c9291906107f7565b506060820151816003015560808201518160040160006101000a81548173ffffffffffffffffffffffffffffffffffffffff021916908373ffffffffffffffffffffffffffffffffffffffff1602179055509050507f9f4686300de5a9179234fb3bc78fc52ccdab10bf0c713107b73a0bb3180b01e883836020015184604001518560600151856040516107e4959493929190610a1c565b60405180910390a1505050565b60015481565b82805461080390610c74565b90600052602060002090601f016020900481019282610825576000855561086c565b82601f1061083e57805160ff191683800117855561086c565b8280016001018555821561086c579182015b8281111561086b578251825591602001919060010190610850565b5b509050610879919061087d565b5090565b5b8082111561089657600081600090555060010161087e565b5090565b600081519050919050565b600082825260208201905092915050565b60005b838110156108d45780820151818401526020810190506108b9565b838111156108e3576000848401525b50505050565b6000601f19601f8301169050919050565b60006109058261089a565b61090f81856108a5565b935061091f8185602086016108b6565b610928816108e9565b840191505092915050565b6000602082019050818103600083015261094d81846108fa565b905092915050565b6000604051905090565b600080fd5b600080fd5b6000819050919050565b61097c81610969565b811461098757600080fd5b50565b60008135905061099981610973565b92915050565b6000602082840312156109b5576109b461095f565b5b60006109c38482850161098a565b91505092915050565b6109d581610969565b82525050565b600073ffffffffffffffffffffffffffffffffffffffff82169050919050565b6000610a06826109db565b9050919050565b610a16816109fb565b82525050565b600060a082019050610a3160008301886109cc565b8181036020830152610a4381876108fa565b90508181036040830152610a5781866108fa565b9050610a6660608301856109cc565b610a736080830184610a0d565b9695505050505050565b600080fd5b600080fd5b7f4e487b7100000000000000000000000000000000000000000000000000000000600052604160045260246000fd5b610abf826108e9565b810181811067ffffffffffffffff82111715610ade57610add610a87565b5b80604052505050565b6000610af1610955565b9050610afd8282610ab6565b919050565b600067ffffffffffffffff821115610b1d57610b1c610a87565b5b610b26826108e9565b9050602081019050919050565b82818337600083830152505050565b6000610b55610b5084610b02565b610ae7565b905082815260208101848484011115610b7157610b70610a82565b5b610b7c848285610b33565b509392505050565b600082601f830112610b9957610b98610a7d565b5b8135610ba9848260208601610b42565b91505092915050565b60008060408385031215610bc957610bc861095f565b5b600083013567ffffffffffffffff811115610be757610be6610964565b5b610bf385828601610b84565b925050602083013567ffffffffffffffff811115610c1457610c13610964565b5b610c2085828601610b84565b9150509250929050565b6000602082019050610c3f60008301846109cc565b92915050565b7f4e487b7100000000000000000000000000000000000000000000000000000000600052602260045260246000fd5b60006002820490506001821680610c8c57607f821691505b60208210811415610ca057610c9f610c45565b5b50919050565b7f4e487b7100000000000000000000000000000000000000000000000000000000600052601160045260246000fd5b6000610ce082610969565b91507fffffffffffffffffffffffffffffffffffffffffffffffffffffffffffffffff821415610d1357610d12610ca6565b5b600182019050919050565b6000819050919050565b6000819050919050565b6000610d4d610d48610d4384610d1e565b610d28565b610969565b9050919050565b610d5d81610d32565b82525050565b600060a082019050610d7860008301886109cc565b8181036020830152610d8a81876108fa565b90508181036040830152610d9e81866108fa565b9050610dad6060830185610d54565b610dba6080830184610a0d565b9695505050505050565b6000610dcf82610969565b9150610dda83610969565b9250827fffffffffffffffffffffffffffffffffffffffffffffffffffffffffffffffff03821115610e0f57610e0e610ca6565b5b82820190509291505056fea2646970667358221220267dfb51f5024576b24a630b1a9fabbc17fffa60894b8044121767396440620064736f6c634300080b0033",
  "immutableReferences": {},
  "source": "// SPDX-License-Identifier: MIT\npragma solidity ^0.8.0;\n\ncontract Sofi {\n    string public name = \"Sofi\";\n    uint public imageId = 0;\n\n    struct Image {\n        uint id;\n        string hash;\n        string description;\n        uint tipAmount;\n        address payable author;\n    }\n\n    mapping (uint => Image) public images;\n\n    event ImageUploaded(\n        uint id,\n        string hash,\n        string description,\n        uint tipAmount,\n        address payable author\n    );\n\n    event TipOnPost(\n        uint id,\n        string hash,\n        string description,\n        uint tipAmount,\n        address payable author\n    );\n\n    function uploadImage(string memory _imageHash, string memory _desc) public {\n        require(msg.sender != address(0x0));\n        require(bytes(_imageHash).length > 0);\n        require(bytes(_desc).length > 0);\n        imageId++;\n        images[imageId] = Image(imageId, _imageHash, _desc, 0, payable(msg.sender));\n        emit ImageUploaded(imageId, _imageHash, _desc, 0, payable(msg.sender));\n    }\n\n    function tipPostOwner(uint _id) public payable {\n        require(_id != 0 && _id <= imageId);\n        // fetches the images mapping\n        Image memory _image = images[_id]; \n        // fetch the author (owner of the post)\n        address payable _author = _image.author;\n        // tipping author by paying them ether \n        _author.transfer(msg.value);    \n        // increment the tip amount\n        _image.tipAmount = _image.tipAmount + msg.value;\n        // update the image mapping\n        images[_id] = _image;\n\n        emit TipOnPost(_id, _image.hash, _image.description, _image.tipAmount, _author);\n    }\n}",
  "sourcePath": "/Users/vtech/Desktop/web3/contracts/contracts/Sofi.sol",
  "compiler": {
    "name": "solc",
    "version": "0.8.11+commit.d7f03943.Emscripten.clang"
  },
  "schemaVersion": "3.4.4",
  "updatedAt": "2022-02-18T18:41:37.090Z",
  "networkType": "ethereum",
  "devdoc": {
    "kind": "dev",
    "methods": {},
    "version": 1
  },
  "userdoc": {
    "kind": "user",
    "methods": {},
    "version": 1
  }
}